{
  "contractName": "SocialNetwork",
  "abi": [
    {
      "constant": true,
      "inputs": [],
      "name": "name",
      "outputs": [
        {
          "name": "",
          "type": "string"
        }
      ],
      "payable": false,
      "stateMutability": "view",
      "type": "function",
      "signature": "0x06fdde03"
    },
    {
      "constant": true,
      "inputs": [
        {
          "name": "",
          "type": "uint256"
        }
      ],
      "name": "posts",
      "outputs": [
        {
          "name": "id",
          "type": "uint256"
        },
        {
          "name": "content",
          "type": "string"
        },
        {
          "name": "tipAmount",
          "type": "uint256"
        },
        {
          "name": "author",
          "type": "address"
        }
      ],
      "payable": false,
      "stateMutability": "view",
      "type": "function",
      "signature": "0x0b1e7f83"
    },
    {
      "constant": true,
      "inputs": [
        {
          "name": "",
          "type": "uint256"
        }
      ],
      "name": "demographics",
      "outputs": [
        {
          "name": "id",
          "type": "uint256"
        },
        {
          "name": "firstName",
          "type": "string"
        },
        {
          "name": "lastName",
          "type": "string"
        },
        {
          "name": "dateOfBirth",
          "type": "string"
        },
        {
          "name": "height",
          "type": "string"
        },
        {
          "name": "weight",
          "type": "string"
        },
        {
          "name": "bloodType",
          "type": "string"
        },
        {
          "name": "author",
          "type": "address"
        }
      ],
      "payable": false,
      "stateMutability": "view",
      "type": "function",
      "signature": "0x0dbeb9bf"
    },
    {
      "constant": true,
      "inputs": [
        {
          "name": "",
          "type": "uint256"
        }
      ],
      "name": "appointments",
      "outputs": [
        {
          "name": "id",
          "type": "uint256"
        },
        {
          "name": "date",
          "type": "string"
        },
        {
          "name": "apt_time",
          "type": "string"
        },
        {
          "name": "location",
          "type": "string"
        },
        {
          "name": "status",
          "type": "string"
        },
        {
          "name": "followup",
          "type": "string"
        },
        {
          "name": "notes",
          "type": "string"
        },
        {
          "name": "author",
          "type": "address"
        }
      ],
      "payable": false,
      "stateMutability": "view",
      "type": "function",
      "signature": "0x12dc9013"
    },
    {
      "constant": true,
      "inputs": [],
      "name": "postCount",
      "outputs": [
        {
          "name": "",
          "type": "uint256"
        }
      ],
      "payable": false,
      "stateMutability": "view",
      "type": "function",
      "signature": "0x17906c2e"
    },
    {
      "constant": true,
      "inputs": [],
      "name": "demographicCount",
      "outputs": [
        {
          "name": "",
          "type": "uint256"
        }
      ],
      "payable": false,
      "stateMutability": "view",
      "type": "function",
      "signature": "0x1f42a9f9"
    },
    {
      "constant": true,
      "inputs": [],
      "name": "encounterCount",
      "outputs": [
        {
          "name": "",
          "type": "uint256"
        }
      ],
      "payable": false,
      "stateMutability": "view",
      "type": "function",
      "signature": "0x80a76c90"
    },
    {
      "constant": true,
      "inputs": [
        {
          "name": "",
          "type": "uint256"
        }
      ],
      "name": "encounters",
      "outputs": [
        {
          "name": "id",
          "type": "uint256"
        },
        {
          "name": "date",
          "type": "string"
        },
        {
          "name": "location",
          "type": "string"
        },
        {
          "name": "diagnosis",
          "type": "string"
        },
        {
          "name": "description",
          "type": "string"
        },
        {
          "name": "procedure",
          "type": "string"
        },
        {
          "name": "practitioner",
          "type": "string"
        },
        {
          "name": "author",
          "type": "address"
        }
      ],
      "payable": false,
      "stateMutability": "view",
      "type": "function",
      "signature": "0xaaed07b3"
    },
    {
      "constant": true,
      "inputs": [],
      "name": "appointmentCount",
      "outputs": [
        {
          "name": "",
          "type": "uint256"
        }
      ],
      "payable": false,
      "stateMutability": "view",
      "type": "function",
      "signature": "0xeebc3fb2"
    },
    {
      "inputs": [],
      "payable": false,
      "stateMutability": "nonpayable",
      "type": "constructor",
      "signature": "constructor"
    },
    {
      "anonymous": false,
      "inputs": [
        {
          "indexed": false,
          "name": "id",
          "type": "uint256"
        },
        {
          "indexed": false,
          "name": "content",
          "type": "string"
        },
        {
          "indexed": false,
          "name": "tipAmount",
          "type": "uint256"
        },
        {
          "indexed": false,
          "name": "author",
          "type": "address"
        }
      ],
      "name": "PostCreated",
      "type": "event",
      "signature": "0xc66336337a24e513f909b3b25119854dba8385d51307dbc7d31d1b2805e19c7e"
    },
    {
      "anonymous": false,
      "inputs": [
        {
          "indexed": false,
          "name": "id",
          "type": "uint256"
        },
        {
          "indexed": false,
          "name": "content",
          "type": "string"
        },
        {
          "indexed": false,
          "name": "tipAmount",
          "type": "uint256"
        },
        {
          "indexed": false,
          "name": "author",
          "type": "address"
        }
      ],
      "name": "PostTipped",
      "type": "event",
      "signature": "0x20988fe475351e75813672abada1dddb7ac67cbbeb81e61e1160b8329d8cdf1c"
    },
    {
      "anonymous": false,
      "inputs": [
        {
          "indexed": false,
          "name": "id",
          "type": "uint256"
        },
        {
          "indexed": false,
          "name": "firstName",
          "type": "string"
        },
        {
          "indexed": false,
          "name": "lastName",
          "type": "string"
        },
        {
          "indexed": false,
          "name": "dateOfBirth",
          "type": "string"
        },
        {
          "indexed": false,
          "name": "height",
          "type": "string"
        },
        {
          "indexed": false,
          "name": "weight",
          "type": "string"
        },
        {
          "indexed": false,
          "name": "bloodType",
          "type": "string"
        },
        {
          "indexed": false,
          "name": "author",
          "type": "address"
        }
      ],
      "name": "DemographicCreated",
      "type": "event",
      "signature": "0x09c007c8bf25651eccd4b3b97921dda24057543e36264d7af2c8e3e42b454125"
    },
    {
      "anonymous": false,
      "inputs": [
        {
          "indexed": false,
          "name": "id",
          "type": "uint256"
        },
        {
          "indexed": false,
          "name": "date",
          "type": "string"
        },
        {
          "indexed": false,
          "name": "apt_time",
          "type": "string"
        },
        {
          "indexed": false,
          "name": "location",
          "type": "string"
        },
        {
          "indexed": false,
          "name": "status",
          "type": "string"
        },
        {
          "indexed": false,
          "name": "followup",
          "type": "string"
        },
        {
          "indexed": false,
          "name": "notes",
          "type": "string"
        },
        {
          "indexed": false,
          "name": "author",
          "type": "address"
        }
      ],
      "name": "AppointmentCreated",
      "type": "event",
      "signature": "0x076ff7e2e8ce485e96f795f70b96ed3c22d368b8006ac30babbb9e972a50cee4"
    },
    {
      "anonymous": false,
      "inputs": [
        {
          "indexed": false,
          "name": "id",
          "type": "uint256"
        },
        {
          "indexed": false,
          "name": "date",
          "type": "string"
        },
        {
          "indexed": false,
          "name": "location",
          "type": "string"
        },
        {
          "indexed": false,
          "name": "diagnosis",
          "type": "string"
        },
        {
          "indexed": false,
          "name": "description",
          "type": "string"
        },
        {
          "indexed": false,
          "name": "procedure",
          "type": "string"
        },
        {
          "indexed": false,
          "name": "practitioner",
          "type": "string"
        },
        {
          "indexed": false,
          "name": "author",
          "type": "address"
        }
      ],
      "name": "EncounterCreated",
      "type": "event",
      "signature": "0xc2dd09b727be36f6b00d7c297fe9c1919d355998166cdeb11d63fd7d16901329"
    },
    {
      "constant": false,
      "inputs": [
        {
          "name": "_content",
          "type": "string"
        }
      ],
      "name": "createPost",
      "outputs": [],
      "payable": false,
      "stateMutability": "nonpayable",
      "type": "function",
      "signature": "0xc7303c61"
    },
    {
      "constant": false,
      "inputs": [
        {
          "name": "_field1",
          "type": "string"
        },
        {
          "name": "_field2",
          "type": "string"
        },
        {
          "name": "_field3",
          "type": "string"
        },
        {
          "name": "_field4",
          "type": "string"
        },
        {
          "name": "_field5",
          "type": "string"
        },
        {
          "name": "_field6",
          "type": "string"
        },
        {
          "name": "_flag",
          "type": "uint256"
        }
      ],
      "name": "addRecord",
      "outputs": [],
      "payable": false,
      "stateMutability": "nonpayable",
      "type": "function",
      "signature": "0x15e82220"
    },
    {
      "constant": false,
      "inputs": [
        {
          "name": "_id",
          "type": "uint256"
        }
      ],
      "name": "tipPost",
      "outputs": [],
      "payable": true,
      "stateMutability": "payable",
      "type": "function",
      "signature": "0x74d3c1f8"
    }
  ],
  "bytecode": "0x608060405260006001556000600255600060035560006004553480156200002557600080fd5b506040805190810160405280601e81526020017f4461707020556e697665727369747920536f6369616c204e6574776f726b000081525060009080519060200190620000739291906200007a565b5062000129565b828054600181600116156101000203166002900490600052602060002090601f016020900481019282601f10620000bd57805160ff1916838001178555620000ee565b82800160010185558215620000ee579182015b82811115620000ed578251825591602001919060010190620000d0565b5b509050620000fd919062000101565b5090565b6200012691905b808211156200012257600081600090555060010162000108565b5090565b90565b6131fe80620001396000396000f3fe6080604052600436106100ba576000357c0100000000000000000000000000000000000000000000000000000000900463ffffffff16806306fdde03146100bf5780630b1e7f831461014f5780630dbeb9bf1461024457806312dc90131461054e57806315e822201461085857806317906c2e14610c1d5780631f42a9f914610c4857806374d3c1f814610c7357806380a76c9014610ca1578063aaed07b314610ccc578063c7303c6114610fd6578063eebc3fb21461109e575b600080fd5b3480156100cb57600080fd5b506100d46110c9565b6040518080602001828103825283818151815260200191508051906020019080838360005b838110156101145780820151818401526020810190506100f9565b50505050905090810190601f1680156101415780820380516001836020036101000a031916815260200191505b509250505060405180910390f35b34801561015b57600080fd5b506101886004803603602081101561017257600080fd5b8101908080359060200190929190505050611167565b60405180858152602001806020018481526020018373ffffffffffffffffffffffffffffffffffffffff1673ffffffffffffffffffffffffffffffffffffffff168152602001828103825285818151815260200191508051906020019080838360005b838110156102065780820151818401526020810190506101eb565b50505050905090810190601f1680156102335780820380516001836020036101000a031916815260200191505b509550505050505060405180910390f35b34801561025057600080fd5b5061027d6004803603602081101561026757600080fd5b810190808035906020019092919050505061124f565b604051808981526020018060200180602001806020018060200180602001806020018873ffffffffffffffffffffffffffffffffffffffff1673ffffffffffffffffffffffffffffffffffffffff16815260200187810387528e818151815260200191508051906020019080838360005b838110156103095780820151818401526020810190506102ee565b50505050905090810190601f1680156103365780820380516001836020036101000a031916815260200191505b5087810386528d818151815260200191508051906020019080838360005b8381101561036f578082015181840152602081019050610354565b50505050905090810190601f16801561039c5780820380516001836020036101000a031916815260200191505b5087810385528c818151815260200191508051906020019080838360005b838110156103d55780820151818401526020810190506103ba565b50505050905090810190601f1680156104025780820380516001836020036101000a031916815260200191505b5087810384528b818151815260200191508051906020019080838360005b8381101561043b578082015181840152602081019050610420565b50505050905090810190601f1680156104685780820380516001836020036101000a031916815260200191505b5087810383528a818151815260200191508051906020019080838360005b838110156104a1578082015181840152602081019050610486565b50505050905090810190601f1680156104ce5780820380516001836020036101000a031916815260200191505b50878103825289818151815260200191508051906020019080838360005b838110156105075780820151818401526020810190506104ec565b50505050905090810190601f1680156105345780820380516001836020036101000a031916815260200191505b509e50505050505050505050505050505060405180910390f35b34801561055a57600080fd5b506105876004803603602081101561057157600080fd5b8101908080359060200190929190505050611647565b604051808981526020018060200180602001806020018060200180602001806020018873ffffffffffffffffffffffffffffffffffffffff1673ffffffffffffffffffffffffffffffffffffffff16815260200187810387528e818151815260200191508051906020019080838360005b838110156106135780820151818401526020810190506105f8565b50505050905090810190601f1680156106405780820380516001836020036101000a031916815260200191505b5087810386528d818151815260200191508051906020019080838360005b8381101561067957808201518184015260208101905061065e565b50505050905090810190601f1680156106a65780820380516001836020036101000a031916815260200191505b5087810385528c818151815260200191508051906020019080838360005b838110156106df5780820151818401526020810190506106c4565b50505050905090810190601f16801561070c5780820380516001836020036101000a031916815260200191505b5087810384528b818151815260200191508051906020019080838360005b8381101561074557808201518184015260208101905061072a565b50505050905090810190601f1680156107725780820380516001836020036101000a031916815260200191505b5087810383528a818151815260200191508051906020019080838360005b838110156107ab578082015181840152602081019050610790565b50505050905090810190601f1680156107d85780820380516001836020036101000a031916815260200191505b50878103825289818151815260200191508051906020019080838360005b838110156108115780820151818401526020810190506107f6565b50505050905090810190601f16801561083e5780820380516001836020036101000a031916815260200191505b509e50505050505050505050505050505060405180910390f35b34801561086457600080fd5b50610c1b600480360360e081101561087b57600080fd5b810190808035906020019064010000000081111561089857600080fd5b8201836020820111156108aa57600080fd5b803590602001918460018302840111640100000000831117156108cc57600080fd5b91908080601f016020809104026020016040519081016040528093929190818152602001838380828437600081840152601f19601f8201169050808301925050505050505091929192908035906020019064010000000081111561092f57600080fd5b82018360208201111561094157600080fd5b8035906020019184600183028401116401000000008311171561096357600080fd5b91908080601f016020809104026020016040519081016040528093929190818152602001838380828437600081840152601f19601f820116905080830192505050505050509192919290803590602001906401000000008111156109c657600080fd5b8201836020820111156109d857600080fd5b803590602001918460018302840111640100000000831117156109fa57600080fd5b91908080601f016020809104026020016040519081016040528093929190818152602001838380828437600081840152601f19601f82011690508083019250505050505050919291929080359060200190640100000000811115610a5d57600080fd5b820183602082011115610a6f57600080fd5b80359060200191846001830284011164010000000083111715610a9157600080fd5b91908080601f016020809104026020016040519081016040528093929190818152602001838380828437600081840152601f19601f82011690508083019250505050505050919291929080359060200190640100000000811115610af457600080fd5b820183602082011115610b0657600080fd5b80359060200191846001830284011164010000000083111715610b2857600080fd5b91908080601f016020809104026020016040519081016040528093929190818152602001838380828437600081840152601f19601f82011690508083019250505050505050919291929080359060200190640100000000811115610b8b57600080fd5b820183602082011115610b9d57600080fd5b80359060200191846001830284011164010000000083111715610bbf57600080fd5b91908080601f016020809104026020016040519081016040528093929190818152602001838380828437600081840152601f19601f82011690508083019250505050505050919291929080359060200190929190505050611a3f565b005b348015610c2957600080fd5b50610c326127db565b6040518082815260200191505060405180910390f35b348015610c5457600080fd5b50610c5d6127e1565b6040518082815260200191505060405180910390f35b610c9f60048036036020811015610c8957600080fd5b81019080803590602001909291905050506127e7565b005b348015610cad57600080fd5b50610cb6612b17565b6040518082815260200191505060405180910390f35b348015610cd857600080fd5b50610d0560048036036020811015610cef57600080fd5b8101908080359060200190929190505050612b1d565b604051808981526020018060200180602001806020018060200180602001806020018873ffffffffffffffffffffffffffffffffffffffff1673ffffffffffffffffffffffffffffffffffffffff16815260200187810387528e818151815260200191508051906020019080838360005b83811015610d91578082015181840152602081019050610d76565b50505050905090810190601f168015610dbe5780820380516001836020036101000a031916815260200191505b5087810386528d818151815260200191508051906020019080838360005b83811015610df7578082015181840152602081019050610ddc565b50505050905090810190601f168015610e245780820380516001836020036101000a031916815260200191505b5087810385528c818151815260200191508051906020019080838360005b83811015610e5d578082015181840152602081019050610e42565b50505050905090810190601f168015610e8a5780820380516001836020036101000a031916815260200191505b5087810384528b818151815260200191508051906020019080838360005b83811015610ec3578082015181840152602081019050610ea8565b50505050905090810190601f168015610ef05780820380516001836020036101000a031916815260200191505b5087810383528a818151815260200191508051906020019080838360005b83811015610f29578082015181840152602081019050610f0e565b50505050905090810190601f168015610f565780820380516001836020036101000a031916815260200191505b50878103825289818151815260200191508051906020019080838360005b83811015610f8f578082015181840152602081019050610f74565b50505050905090810190601f168015610fbc5780820380516001836020036101000a031916815260200191505b509e50505050505050505050505050505060405180910390f35b348015610fe257600080fd5b5061109c60048036036020811015610ff957600080fd5b810190808035906020019064010000000081111561101657600080fd5b82018360208201111561102857600080fd5b8035906020019184600183028401116401000000008311171561104a57600080fd5b91908080601f016020809104026020016040519081016040528093929190818152602001838380828437600081840152601f19601f820116905080830192505050505050509192919290505050612f15565b005b3480156110aa57600080fd5b506110b36130e8565b6040518082815260200191505060405180910390f35b60008054600181600116156101000203166002900480601f01602080910402602001604051908101604052809291908181526020018280546001816001161561010002031660029004801561115f5780601f106111345761010080835404028352916020019161115f565b820191906000526020600020905b81548152906001019060200180831161114257829003601f168201915b505050505081565b6005602052806000526040600020600091509050806000015490806001018054600181600116156101000203166002900480601f0160208091040260200160405190810160405280929190818152602001828054600181600116156101000203166002900480156112195780601f106111ee57610100808354040283529160200191611219565b820191906000526020600020905b8154815290600101906020018083116111fc57829003601f168201915b5050505050908060020154908060030160009054906101000a900473ffffffffffffffffffffffffffffffffffffffff16905084565b6006602052806000526040600020600091509050806000015490806001018054600181600116156101000203166002900480601f0160208091040260200160405190810160405280929190818152602001828054600181600116156101000203166002900480156113015780601f106112d657610100808354040283529160200191611301565b820191906000526020600020905b8154815290600101906020018083116112e457829003601f168201915b505050505090806002018054600181600116156101000203166002900480601f01602080910402602001604051908101604052809291908181526020018280546001816001161561010002031660029004801561139f5780601f106113745761010080835404028352916020019161139f565b820191906000526020600020905b81548152906001019060200180831161138257829003601f168201915b505050505090806003018054600181600116156101000203166002900480601f01602080910402602001604051908101604052809291908181526020018280546001816001161561010002031660029004801561143d5780601f106114125761010080835404028352916020019161143d565b820191906000526020600020905b81548152906001019060200180831161142057829003601f168201915b505050505090806004018054600181600116156101000203166002900480601f0160208091040260200160405190810160405280929190818152602001828054600181600116156101000203166002900480156114db5780601f106114b0576101008083540402835291602001916114db565b820191906000526020600020905b8154815290600101906020018083116114be57829003601f168201915b505050505090806005018054600181600116156101000203166002900480601f0160208091040260200160405190810160405280929190818152602001828054600181600116156101000203166002900480156115795780601f1061154e57610100808354040283529160200191611579565b820191906000526020600020905b81548152906001019060200180831161155c57829003601f168201915b505050505090806006018054600181600116156101000203166002900480601f0160208091040260200160405190810160405280929190818152602001828054600181600116156101000203166002900480156116175780601f106115ec57610100808354040283529160200191611617565b820191906000526020600020905b8154815290600101906020018083116115fa57829003601f168201915b5050505050908060070160009054906101000a900473ffffffffffffffffffffffffffffffffffffffff16905088565b6007602052806000526040600020600091509050806000015490806001018054600181600116156101000203166002900480601f0160208091040260200160405190810160405280929190818152602001828054600181600116156101000203166002900480156116f95780601f106116ce576101008083540402835291602001916116f9565b820191906000526020600020905b8154815290600101906020018083116116dc57829003601f168201915b505050505090806002018054600181600116156101000203166002900480601f0160208091040260200160405190810160405280929190818152602001828054600181600116156101000203166002900480156117975780601f1061176c57610100808354040283529160200191611797565b820191906000526020600020905b81548152906001019060200180831161177a57829003601f168201915b505050505090806003018054600181600116156101000203166002900480601f0160208091040260200160405190810160405280929190818152602001828054600181600116156101000203166002900480156118355780601f1061180a57610100808354040283529160200191611835565b820191906000526020600020905b81548152906001019060200180831161181857829003601f168201915b505050505090806004018054600181600116156101000203166002900480601f0160208091040260200160405190810160405280929190818152602001828054600181600116156101000203166002900480156118d35780601f106118a8576101008083540402835291602001916118d3565b820191906000526020600020905b8154815290600101906020018083116118b657829003601f168201915b505050505090806005018054600181600116156101000203166002900480601f0160208091040260200160405190810160405280929190818152602001828054600181600116156101000203166002900480156119715780601f1061194657610100808354040283529160200191611971565b820191906000526020600020905b81548152906001019060200180831161195457829003601f168201915b505050505090806006018054600181600116156101000203166002900480601f016020809104026020016040519081016040528092919081815260200182805460018160011615610100020316600290048015611a0f5780601f106119e457610100808354040283529160200191611a0f565b820191906000526020600020905b8154815290600101906020018083116119f257829003601f168201915b5050505050908060070160009054906101000a900473ffffffffffffffffffffffffffffffffffffffff16905088565b60008751111515611a4f57600080fd5b6001811415611ed0576002600081548092919060010191905055506101006040519081016040528060025481526020018881526020018781526020018681526020018581526020018481526020018381526020013373ffffffffffffffffffffffffffffffffffffffff16815250600660006002548152602001908152602001600020600082015181600001556020820151816001019080519060200190611af89291906130ee565b506040820151816002019080519060200190611b159291906130ee565b506060820151816003019080519060200190611b329291906130ee565b506080820151816004019080519060200190611b4f9291906130ee565b5060a0820151816005019080519060200190611b6c9291906130ee565b5060c0820151816006019080519060200190611b899291906130ee565b5060e08201518160070160006101000a81548173ffffffffffffffffffffffffffffffffffffffff021916908373ffffffffffffffffffffffffffffffffffffffff1602179055509050507f09c007c8bf25651eccd4b3b97921dda24057543e36264d7af2c8e3e42b45412560025488888888888833604051808981526020018060200180602001806020018060200180602001806020018873ffffffffffffffffffffffffffffffffffffffff1673ffffffffffffffffffffffffffffffffffffffff16815260200187810387528e818151815260200191508051906020019080838360005b83811015611c8b578082015181840152602081019050611c70565b50505050905090810190601f168015611cb85780820380516001836020036101000a031916815260200191505b5087810386528d818151815260200191508051906020019080838360005b83811015611cf1578082015181840152602081019050611cd6565b50505050905090810190601f168015611d1e5780820380516001836020036101000a031916815260200191505b5087810385528c818151815260200191508051906020019080838360005b83811015611d57578082015181840152602081019050611d3c565b50505050905090810190601f168015611d845780820380516001836020036101000a031916815260200191505b5087810384528b818151815260200191508051906020019080838360005b83811015611dbd578082015181840152602081019050611da2565b50505050905090810190601f168015611dea5780820380516001836020036101000a031916815260200191505b5087810383528a818151815260200191508051906020019080838360005b83811015611e23578082015181840152602081019050611e08565b50505050905090810190601f168015611e505780820380516001836020036101000a031916815260200191505b50878103825289818151815260200191508051906020019080838360005b83811015611e89578082015181840152602081019050611e6e565b50505050905090810190601f168015611eb65780820380516001836020036101000a031916815260200191505b509e50505050505050505050505050505060405180910390a15b6002811415612351576003600081548092919060010191905055506101006040519081016040528060035481526020018881526020018781526020018681526020018581526020018481526020018381526020013373ffffffffffffffffffffffffffffffffffffffff16815250600760006003548152602001908152602001600020600082015181600001556020820151816001019080519060200190611f799291906130ee565b506040820151816002019080519060200190611f969291906130ee565b506060820151816003019080519060200190611fb39291906130ee565b506080820151816004019080519060200190611fd09291906130ee565b5060a0820151816005019080519060200190611fed9291906130ee565b5060c082015181600601908051906020019061200a9291906130ee565b5060e08201518160070160006101000a81548173ffffffffffffffffffffffffffffffffffffffff021916908373ffffffffffffffffffffffffffffffffffffffff1602179055509050507f076ff7e2e8ce485e96f795f70b96ed3c22d368b8006ac30babbb9e972a50cee460035488888888888833604051808981526020018060200180602001806020018060200180602001806020018873ffffffffffffffffffffffffffffffffffffffff1673ffffffffffffffffffffffffffffffffffffffff16815260200187810387528e818151815260200191508051906020019080838360005b8381101561210c5780820151818401526020810190506120f1565b50505050905090810190601f1680156121395780820380516001836020036101000a031916815260200191505b5087810386528d818151815260200191508051906020019080838360005b83811015612172578082015181840152602081019050612157565b50505050905090810190601f16801561219f5780820380516001836020036101000a031916815260200191505b5087810385528c818151815260200191508051906020019080838360005b838110156121d85780820151818401526020810190506121bd565b50505050905090810190601f1680156122055780820380516001836020036101000a031916815260200191505b5087810384528b818151815260200191508051906020019080838360005b8381101561223e578082015181840152602081019050612223565b50505050905090810190601f16801561226b5780820380516001836020036101000a031916815260200191505b5087810383528a818151815260200191508051906020019080838360005b838110156122a4578082015181840152602081019050612289565b50505050905090810190601f1680156122d15780820380516001836020036101000a031916815260200191505b50878103825289818151815260200191508051906020019080838360005b8381101561230a5780820151818401526020810190506122ef565b50505050905090810190601f1680156123375780820380516001836020036101000a031916815260200191505b509e50505050505050505050505050505060405180910390a15b60038114156127d2576004600081548092919060010191905055506101006040519081016040528060045481526020018881526020018781526020018681526020018581526020018481526020018381526020013373ffffffffffffffffffffffffffffffffffffffff168152506008600060045481526020019081526020016000206000820151816000015560208201518160010190805190602001906123fa9291906130ee565b5060408201518160020190805190602001906124179291906130ee565b5060608201518160030190805190602001906124349291906130ee565b5060808201518160040190805190602001906124519291906130ee565b5060a082015181600501908051906020019061246e9291906130ee565b5060c082015181600601908051906020019061248b9291906130ee565b5060e08201518160070160006101000a81548173ffffffffffffffffffffffffffffffffffffffff021916908373ffffffffffffffffffffffffffffffffffffffff1602179055509050507fc2dd09b727be36f6b00d7c297fe9c1919d355998166cdeb11d63fd7d1690132960045488888888888833604051808981526020018060200180602001806020018060200180602001806020018873ffffffffffffffffffffffffffffffffffffffff1673ffffffffffffffffffffffffffffffffffffffff16815260200187810387528e818151815260200191508051906020019080838360005b8381101561258d578082015181840152602081019050612572565b50505050905090810190601f1680156125ba5780820380516001836020036101000a031916815260200191505b5087810386528d818151815260200191508051906020019080838360005b838110156125f35780820151818401526020810190506125d8565b50505050905090810190601f1680156126205780820380516001836020036101000a031916815260200191505b5087810385528c818151815260200191508051906020019080838360005b8381101561265957808201518184015260208101905061263e565b50505050905090810190601f1680156126865780820380516001836020036101000a031916815260200191505b5087810384528b818151815260200191508051906020019080838360005b838110156126bf5780820151818401526020810190506126a4565b50505050905090810190601f1680156126ec5780820380516001836020036101000a031916815260200191505b5087810383528a818151815260200191508051906020019080838360005b8381101561272557808201518184015260208101905061270a565b50505050905090810190601f1680156127525780820380516001836020036101000a031916815260200191505b50878103825289818151815260200191508051906020019080838360005b8381101561278b578082015181840152602081019050612770565b50505050905090810190601f1680156127b85780820380516001836020036101000a031916815260200191505b509e50505050505050505050505050505060405180910390a15b50505050505050565b60015481565b60025481565b6000811180156127f957506001548111155b151561280457600080fd5b61280c61316e565b600560008381526020019081526020016000206080604051908101604052908160008201548152602001600182018054600181600116156101000203166002900480601f0160208091040260200160405190810160405280929190818152602001828054600181600116156101000203166002900480156128ce5780601f106128a3576101008083540402835291602001916128ce565b820191906000526020600020905b8154815290600101906020018083116128b157829003601f168201915b50505050508152602001600282015481526020016003820160009054906101000a900473ffffffffffffffffffffffffffffffffffffffff1673ffffffffffffffffffffffffffffffffffffffff1673ffffffffffffffffffffffffffffffffffffffff168152505090506000816060015190508073ffffffffffffffffffffffffffffffffffffffff166108fc349081150290604051600060405180830381858888f19350505050158015612988573d6000803e3d6000fd5b503482604001510182604001818152505081600560008581526020019081526020016000206000820151816000015560208201518160010190805190602001906129d39291906130ee565b506040820151816002015560608201518160030160006101000a81548173ffffffffffffffffffffffffffffffffffffffff021916908373ffffffffffffffffffffffffffffffffffffffff1602179055509050507f20988fe475351e75813672abada1dddb7ac67cbbeb81e61e1160b8329d8cdf1c600154836020015184604001518460405180858152602001806020018481526020018373ffffffffffffffffffffffffffffffffffffffff1673ffffffffffffffffffffffffffffffffffffffff168152602001828103825285818151815260200191508051906020019080838360005b83811015612ad5578082015181840152602081019050612aba565b50505050905090810190601f168015612b025780820380516001836020036101000a031916815260200191505b509550505050505060405180910390a1505050565b60045481565b6008602052806000526040600020600091509050806000015490806001018054600181600116156101000203166002900480601f016020809104026020016040519081016040528092919081815260200182805460018160011615610100020316600290048015612bcf5780601f10612ba457610100808354040283529160200191612bcf565b820191906000526020600020905b815481529060010190602001808311612bb257829003601f168201915b505050505090806002018054600181600116156101000203166002900480601f016020809104026020016040519081016040528092919081815260200182805460018160011615610100020316600290048015612c6d5780601f10612c4257610100808354040283529160200191612c6d565b820191906000526020600020905b815481529060010190602001808311612c5057829003601f168201915b505050505090806003018054600181600116156101000203166002900480601f016020809104026020016040519081016040528092919081815260200182805460018160011615610100020316600290048015612d0b5780601f10612ce057610100808354040283529160200191612d0b565b820191906000526020600020905b815481529060010190602001808311612cee57829003601f168201915b505050505090806004018054600181600116156101000203166002900480601f016020809104026020016040519081016040528092919081815260200182805460018160011615610100020316600290048015612da95780601f10612d7e57610100808354040283529160200191612da9565b820191906000526020600020905b815481529060010190602001808311612d8c57829003601f168201915b505050505090806005018054600181600116156101000203166002900480601f016020809104026020016040519081016040528092919081815260200182805460018160011615610100020316600290048015612e475780601f10612e1c57610100808354040283529160200191612e47565b820191906000526020600020905b815481529060010190602001808311612e2a57829003601f168201915b505050505090806006018054600181600116156101000203166002900480601f016020809104026020016040519081016040528092919081815260200182805460018160011615610100020316600290048015612ee55780601f10612eba57610100808354040283529160200191612ee5565b820191906000526020600020905b815481529060010190602001808311612ec857829003601f168201915b5050505050908060070160009054906101000a900473ffffffffffffffffffffffffffffffffffffffff16905088565b60008151111515612f2557600080fd5b6001600081548092919060010191905055506080604051908101604052806001548152602001828152602001600081526020013373ffffffffffffffffffffffffffffffffffffffff16815250600560006001548152602001908152602001600020600082015181600001556020820151816001019080519060200190612fad9291906130ee565b506040820151816002015560608201518160030160006101000a81548173ffffffffffffffffffffffffffffffffffffffff021916908373ffffffffffffffffffffffffffffffffffffffff1602179055509050507fc66336337a24e513f909b3b25119854dba8385d51307dbc7d31d1b2805e19c7e6001548260003360405180858152602001806020018481526020018373ffffffffffffffffffffffffffffffffffffffff1673ffffffffffffffffffffffffffffffffffffffff168152602001828103825285818151815260200191508051906020019080838360005b838110156130a857808201518184015260208101905061308d565b50505050905090810190601f1680156130d55780820380516001836020036101000a031916815260200191505b509550505050505060405180910390a150565b60035481565b828054600181600116156101000203166002900490600052602060002090601f016020900481019282601f1061312f57805160ff191683800117855561315d565b8280016001018555821561315d579182015b8281111561315c578251825591602001919060010190613141565b5b50905061316a91906131ad565b5090565b608060405190810160405280600081526020016060815260200160008152602001600073ffffffffffffffffffffffffffffffffffffffff1681525090565b6131cf91905b808211156131cb5760008160009055506001016131b3565b5090565b9056fea165627a7a72305820cd5b786bf3bd163ce64a448223703d838cc62a5a07c823b2bb5cb3cca9517cc80029",
  "source": "pragma solidity ^0.5.0;\r\n\r\ncontract SocialNetwork {\r\n    string public name;\r\n    uint public postCount = 0;\r\n    uint public demographicCount = 0;\r\n    uint public appointmentCount = 0;\r\n    uint public encounterCount = 0;\r\n\r\n    mapping(uint => Post) public posts;\r\n    mapping(uint => Demographic) public demographics;\r\n    mapping(uint => Appointment) public appointments;\r\n    mapping(uint => Encounter) public encounters;\r\n\r\n    struct Post {\r\n        uint id;\r\n        string content;\r\n        uint tipAmount;\r\n        address payable author;\r\n    }\r\n\r\n    event PostCreated(\r\n        uint id,\r\n        string content,\r\n        uint tipAmount,\r\n        address payable author\r\n    );\r\n\r\n    event PostTipped(\r\n        uint id,\r\n        string content,\r\n        uint tipAmount,\r\n        address payable author\r\n    );\r\n\r\n    struct Demographic {\r\n        uint id;\r\n        string firstName;\r\n        string lastName;\r\n        string dateOfBirth;\r\n        string height;\r\n        string weight;\r\n        string bloodType;\r\n        address payable author;\r\n    }\r\n\r\n    event DemographicCreated(\r\n        uint id,\r\n        string firstName,\r\n        string lastName,\r\n        string dateOfBirth,\r\n        string height,\r\n        string weight,\r\n        string bloodType,\r\n        address payable author\r\n    );\r\n\r\n    struct Appointment {\r\n        uint id;\r\n        string date;\r\n        string apt_time;\r\n        string location;\r\n        string status;\r\n        string followup;\r\n        string notes;\r\n        address payable author;\r\n    }\r\n\r\n    event AppointmentCreated(\r\n        uint id,\r\n        string date,\r\n        string apt_time,\r\n        string location,\r\n        string status,\r\n        string followup,\r\n        string notes,\r\n        address payable author\r\n    );\r\n\r\n    struct Encounter {\r\n        uint id;\r\n        string date;\r\n        string location;\r\n        string diagnosis;\r\n        string description;\r\n        string procedure;\r\n        string practitioner;\r\n        address payable author;\r\n    }\r\n\r\n    event EncounterCreated(\r\n        uint id,\r\n        string date,\r\n        string location,\r\n        string diagnosis,\r\n        string description,\r\n        string procedure,\r\n        string practitioner,\r\n        address payable author\r\n    );\r\n\r\n    constructor() public {\r\n        name = \"Dapp University Social Network\";\r\n    }\r\n\r\n    function createPost(string memory _content) public {\r\n        // Require valid content\r\n        require(bytes(_content).length > 0);\r\n        // Increment the post count\r\n        postCount ++;\r\n        // Create the post\r\n        posts[postCount] = Post(postCount, _content, 0, msg.sender);\r\n        // Trigger Event\r\n        emit PostCreated(postCount, _content, 0, msg.sender);\r\n    }\r\n\r\n\r\n    function addRecord(\r\n        string memory _field1,\r\n        string memory _field2,\r\n        string memory _field3,\r\n        string memory _field4,\r\n        string memory _field5,\r\n        string memory _field6,\r\n        uint256 _flag\r\n    \r\n    ) public {\r\n        // Require valid content\r\n        require(bytes(_field1).length > 0);\r\n        \r\n\r\n        if (_flag == 1) {\r\n            // Increment the post count\r\n            demographicCount ++;\r\n            // Create the post\r\n            demographics[demographicCount] = Demographic(demographicCount, _field1, _field2, _field3, _field4, _field5, _field6, msg.sender);\r\n            emit DemographicCreated(demographicCount, _field1, _field2, _field3, _field4, _field5, _field6, msg.sender);\r\n        }\r\n        if (_flag == 2) {\r\n            // Increment the post count\r\n            appointmentCount ++;\r\n            // Create the post\r\n            appointments[appointmentCount] = Appointment(appointmentCount, _field1, _field2, _field3, _field4, _field5, _field6, msg.sender);\r\n            emit AppointmentCreated(appointmentCount, _field1, _field2, _field3, _field4, _field5, _field6, msg.sender);\r\n        }\r\n        if (_flag == 3) {\r\n            // Increment the post count\r\n            encounterCount ++;\r\n            // Create the post\r\n            encounters[encounterCount] = Encounter(encounterCount, _field1, _field2, _field3, _field4, _field5, _field6, msg.sender);\r\n            emit EncounterCreated(encounterCount, _field1, _field2, _field3, _field4, _field5, _field6, msg.sender);\r\n        }\r\n       \r\n    }\r\n    \r\n\r\n    function tipPost(uint _id) public payable {\r\n        // Make sure the id is valid\r\n        require(_id > 0 && _id <= postCount);\r\n        // Fetch the post\r\n        Post memory _post = posts[_id];\r\n        // Fetch the author\r\n        address payable _author = _post.author;\r\n        // Pay the author\r\n        address(_author).transfer(msg.value);\r\n        // Increment the tip amount\r\n        // 1 Ether = 1000000000000000000 Wei\r\n        _post.tipAmount = _post.tipAmount + msg.value;\r\n        // Update the post\r\n        posts[_id] = _post;\r\n        // Trigger an event\r\n        emit PostTipped(postCount, _post.content, _post.tipAmount, _author);\r\n    }\r\n}",
  "sourcePath": "C:/Users/micha/OneDrive/Documents/GitHub/cs476project/src/contracts/SocialNetwork.sol",
  "compiler": {
    "name": "solc",
    "version": "0.5.0+commit.1d4f565a.Emscripten.clang"
  },
  "schemaVersion": "3.0.2",
  "updatedAt": "2023-11-16T16:11:09.939Z",
  "devdoc": {
    "methods": {}
  },
  "userdoc": {
    "methods": {}
  }
}