{
  "contractName": "SocialNetwork",
  "abi": [
    {
      "constant": true,
      "inputs": [],
      "name": "name",
      "outputs": [
        {
          "name": "",
          "type": "string"
        }
      ],
      "payable": false,
      "stateMutability": "view",
      "type": "function",
      "signature": "0x06fdde03"
    },
    {
      "constant": true,
      "inputs": [
        {
          "name": "",
          "type": "uint256"
        }
      ],
      "name": "posts",
      "outputs": [
        {
          "name": "id",
          "type": "uint256"
        },
        {
          "name": "content",
          "type": "string"
        },
        {
          "name": "tipAmount",
          "type": "uint256"
        },
        {
          "name": "author",
          "type": "address"
        }
      ],
      "payable": false,
      "stateMutability": "view",
      "type": "function",
      "signature": "0x0b1e7f83"
    },
    {
      "constant": true,
      "inputs": [
        {
          "name": "",
          "type": "uint256"
        }
      ],
      "name": "demographics",
      "outputs": [
        {
          "name": "firstName",
          "type": "string"
        },
        {
          "name": "lastName",
          "type": "string"
        },
        {
          "name": "dateOfBirth",
          "type": "string"
        },
        {
          "name": "height",
          "type": "string"
        },
        {
          "name": "weight",
          "type": "string"
        },
        {
          "name": "bloodType",
          "type": "string"
        },
        {
          "name": "author",
          "type": "address"
        }
      ],
      "payable": false,
      "stateMutability": "view",
      "type": "function",
      "signature": "0x0dbeb9bf"
    },
    {
      "constant": true,
      "inputs": [],
      "name": "postCount",
      "outputs": [
        {
          "name": "",
          "type": "uint256"
        }
      ],
      "payable": false,
      "stateMutability": "view",
      "type": "function",
      "signature": "0x17906c2e"
    },
    {
      "constant": true,
      "inputs": [],
      "name": "demographicCount",
      "outputs": [
        {
          "name": "",
          "type": "uint256"
        }
      ],
      "payable": false,
      "stateMutability": "view",
      "type": "function",
      "signature": "0x1f42a9f9"
    },
    {
      "inputs": [],
      "payable": false,
      "stateMutability": "nonpayable",
      "type": "constructor",
      "signature": "constructor"
    },
    {
      "anonymous": false,
      "inputs": [
        {
          "indexed": false,
          "name": "id",
          "type": "uint256"
        },
        {
          "indexed": false,
          "name": "content",
          "type": "string"
        },
        {
          "indexed": false,
          "name": "tipAmount",
          "type": "uint256"
        },
        {
          "indexed": false,
          "name": "author",
          "type": "address"
        }
      ],
      "name": "PostCreated",
      "type": "event",
      "signature": "0xc66336337a24e513f909b3b25119854dba8385d51307dbc7d31d1b2805e19c7e"
    },
    {
      "anonymous": false,
      "inputs": [
        {
          "indexed": false,
          "name": "id",
          "type": "uint256"
        },
        {
          "indexed": false,
          "name": "content",
          "type": "string"
        },
        {
          "indexed": false,
          "name": "tipAmount",
          "type": "uint256"
        },
        {
          "indexed": false,
          "name": "author",
          "type": "address"
        }
      ],
      "name": "PostTipped",
      "type": "event",
      "signature": "0x20988fe475351e75813672abada1dddb7ac67cbbeb81e61e1160b8329d8cdf1c"
    },
    {
      "anonymous": false,
      "inputs": [
        {
          "indexed": false,
          "name": "firstName",
          "type": "string"
        },
        {
          "indexed": false,
          "name": "lastName",
          "type": "string"
        },
        {
          "indexed": false,
          "name": "dateOfBirth",
          "type": "string"
        },
        {
          "indexed": false,
          "name": "height",
          "type": "string"
        },
        {
          "indexed": false,
          "name": "weight",
          "type": "string"
        },
        {
          "indexed": false,
          "name": "bloodType",
          "type": "string"
        },
        {
          "indexed": false,
          "name": "author",
          "type": "address"
        }
      ],
      "name": "DemographicCreated",
      "type": "event",
      "signature": "0x717a9bc50265b99122b04f1d027ebaf9703dd9d78056a1ff679f2d4545429bab"
    },
    {
      "constant": false,
      "inputs": [
        {
          "name": "_content",
          "type": "string"
        }
      ],
      "name": "createPost",
      "outputs": [],
      "payable": false,
      "stateMutability": "nonpayable",
      "type": "function",
      "signature": "0xc7303c61"
    },
    {
      "constant": false,
      "inputs": [
        {
          "name": "_firstName",
          "type": "string"
        },
        {
          "name": "_lastName",
          "type": "string"
        },
        {
          "name": "_dateOfBirth",
          "type": "string"
        },
        {
          "name": "_height",
          "type": "string"
        },
        {
          "name": "_weight",
          "type": "string"
        },
        {
          "name": "_bloodType",
          "type": "string"
        }
      ],
      "name": "addDemographic",
      "outputs": [],
      "payable": false,
      "stateMutability": "nonpayable",
      "type": "function",
      "signature": "0x52acc9c4"
    },
    {
      "constant": false,
      "inputs": [
        {
          "name": "_id",
          "type": "uint256"
        }
      ],
      "name": "tipPost",
      "outputs": [],
      "payable": true,
      "stateMutability": "payable",
      "type": "function",
      "signature": "0x74d3c1f8"
    }
  ],
  "bytecode": "0x6080604052600060015560006002553480156200001b57600080fd5b506040805190810160405280601e81526020017f4461707020556e697665727369747920536f6369616c204e6574776f726b0000815250600090805190602001906200006992919062000070565b506200011f565b828054600181600116156101000203166002900490600052602060002090601f016020900481019282601f10620000b357805160ff1916838001178555620000e4565b82800160010185558215620000e4579182015b82811115620000e3578251825591602001919060010190620000c6565b5b509050620000f39190620000f7565b5090565b6200011c91905b8082111562000118576000816000905550600101620000fe565b5090565b90565b611a2b806200012f6000396000f3fe60806040526004361061008e576000357c0100000000000000000000000000000000000000000000000000000000900463ffffffff16806306fdde03146100935780630b1e7f83146101235780630dbeb9bf1461021857806317906c2e1461051b5780631f42a9f91461054657806352acc9c41461057157806374d3c1f81461092c578063c7303c611461095a575b600080fd5b34801561009f57600080fd5b506100a8610a22565b6040518080602001828103825283818151815260200191508051906020019080838360005b838110156100e85780820151818401526020810190506100cd565b50505050905090810190601f1680156101155780820380516001836020036101000a031916815260200191505b509250505060405180910390f35b34801561012f57600080fd5b5061015c6004803603602081101561014657600080fd5b8101908080359060200190929190505050610ac0565b60405180858152602001806020018481526020018373ffffffffffffffffffffffffffffffffffffffff1673ffffffffffffffffffffffffffffffffffffffff168152602001828103825285818151815260200191508051906020019080838360005b838110156101da5780820151818401526020810190506101bf565b50505050905090810190601f1680156102075780820380516001836020036101000a031916815260200191505b509550505050505060405180910390f35b34801561022457600080fd5b506102516004803603602081101561023b57600080fd5b8101908080359060200190929190505050610ba8565b604051808060200180602001806020018060200180602001806020018873ffffffffffffffffffffffffffffffffffffffff1673ffffffffffffffffffffffffffffffffffffffff16815260200187810387528e818151815260200191508051906020019080838360005b838110156102d75780820151818401526020810190506102bc565b50505050905090810190601f1680156103045780820380516001836020036101000a031916815260200191505b5087810386528d818151815260200191508051906020019080838360005b8381101561033d578082015181840152602081019050610322565b50505050905090810190601f16801561036a5780820380516001836020036101000a031916815260200191505b5087810385528c818151815260200191508051906020019080838360005b838110156103a3578082015181840152602081019050610388565b50505050905090810190601f1680156103d05780820380516001836020036101000a031916815260200191505b5087810384528b818151815260200191508051906020019080838360005b838110156104095780820151818401526020810190506103ee565b50505050905090810190601f1680156104365780820380516001836020036101000a031916815260200191505b5087810383528a818151815260200191508051906020019080838360005b8381101561046f578082015181840152602081019050610454565b50505050905090810190601f16801561049c5780820380516001836020036101000a031916815260200191505b50878103825289818151815260200191508051906020019080838360005b838110156104d55780820151818401526020810190506104ba565b50505050905090810190601f1680156105025780820380516001836020036101000a031916815260200191505b509d505050505050505050505050505060405180910390f35b34801561052757600080fd5b50610530610f9a565b6040518082815260200191505060405180910390f35b34801561055257600080fd5b5061055b610fa0565b6040518082815260200191505060405180910390f35b34801561057d57600080fd5b5061092a600480360360c081101561059457600080fd5b81019080803590602001906401000000008111156105b157600080fd5b8201836020820111156105c357600080fd5b803590602001918460018302840111640100000000831117156105e557600080fd5b91908080601f016020809104026020016040519081016040528093929190818152602001838380828437600081840152601f19601f8201169050808301925050505050505091929192908035906020019064010000000081111561064857600080fd5b82018360208201111561065a57600080fd5b8035906020019184600183028401116401000000008311171561067c57600080fd5b91908080601f016020809104026020016040519081016040528093929190818152602001838380828437600081840152601f19601f820116905080830192505050505050509192919290803590602001906401000000008111156106df57600080fd5b8201836020820111156106f157600080fd5b8035906020019184600183028401116401000000008311171561071357600080fd5b91908080601f016020809104026020016040519081016040528093929190818152602001838380828437600081840152601f19601f8201169050808301925050505050505091929192908035906020019064010000000081111561077657600080fd5b82018360208201111561078857600080fd5b803590602001918460018302840111640100000000831117156107aa57600080fd5b91908080601f016020809104026020016040519081016040528093929190818152602001838380828437600081840152601f19601f8201169050808301925050505050505091929192908035906020019064010000000081111561080d57600080fd5b82018360208201111561081f57600080fd5b8035906020019184600183028401116401000000008311171561084157600080fd5b91908080601f016020809104026020016040519081016040528093929190818152602001838380828437600081840152601f19601f820116905080830192505050505050509192919290803590602001906401000000008111156108a457600080fd5b8201836020820111156108b657600080fd5b803590602001918460018302840111640100000000831117156108d857600080fd5b91908080601f016020809104026020016040519081016040528093929190818152602001838380828437600081840152601f19601f820116905080830192505050505050509192919290505050610fa6565b005b6109586004803603602081101561094257600080fd5b8101908080359060200190929190505050611418565b005b34801561096657600080fd5b50610a206004803603602081101561097d57600080fd5b810190808035906020019064010000000081111561099a57600080fd5b8201836020820111156109ac57600080fd5b803590602001918460018302840111640100000000831117156109ce57600080fd5b91908080601f016020809104026020016040519081016040528093929190818152602001838380828437600081840152601f19601f820116905080830192505050505050509192919290505050611748565b005b60008054600181600116156101000203166002900480601f016020809104026020016040519081016040528092919081815260200182805460018160011615610100020316600290048015610ab85780601f10610a8d57610100808354040283529160200191610ab8565b820191906000526020600020905b815481529060010190602001808311610a9b57829003601f168201915b505050505081565b6003602052806000526040600020600091509050806000015490806001018054600181600116156101000203166002900480601f016020809104026020016040519081016040528092919081815260200182805460018160011615610100020316600290048015610b725780601f10610b4757610100808354040283529160200191610b72565b820191906000526020600020905b815481529060010190602001808311610b5557829003601f168201915b5050505050908060020154908060030160009054906101000a900473ffffffffffffffffffffffffffffffffffffffff16905084565b6004602052806000526040600020600091509050806000018054600181600116156101000203166002900480601f016020809104026020016040519081016040528092919081815260200182805460018160011615610100020316600290048015610c545780601f10610c2957610100808354040283529160200191610c54565b820191906000526020600020905b815481529060010190602001808311610c3757829003601f168201915b505050505090806001018054600181600116156101000203166002900480601f016020809104026020016040519081016040528092919081815260200182805460018160011615610100020316600290048015610cf25780601f10610cc757610100808354040283529160200191610cf2565b820191906000526020600020905b815481529060010190602001808311610cd557829003601f168201915b505050505090806002018054600181600116156101000203166002900480601f016020809104026020016040519081016040528092919081815260200182805460018160011615610100020316600290048015610d905780601f10610d6557610100808354040283529160200191610d90565b820191906000526020600020905b815481529060010190602001808311610d7357829003601f168201915b505050505090806003018054600181600116156101000203166002900480601f016020809104026020016040519081016040528092919081815260200182805460018160011615610100020316600290048015610e2e5780601f10610e0357610100808354040283529160200191610e2e565b820191906000526020600020905b815481529060010190602001808311610e1157829003601f168201915b505050505090806004018054600181600116156101000203166002900480601f016020809104026020016040519081016040528092919081815260200182805460018160011615610100020316600290048015610ecc5780601f10610ea157610100808354040283529160200191610ecc565b820191906000526020600020905b815481529060010190602001808311610eaf57829003601f168201915b505050505090806005018054600181600116156101000203166002900480601f016020809104026020016040519081016040528092919081815260200182805460018160011615610100020316600290048015610f6a5780601f10610f3f57610100808354040283529160200191610f6a565b820191906000526020600020905b815481529060010190602001808311610f4d57829003601f168201915b5050505050908060060160009054906101000a900473ffffffffffffffffffffffffffffffffffffffff16905087565b60015481565b60025481565b60008651111515610fb657600080fd5b60026000815480929190600101919050555060e0604051908101604052808781526020018681526020018581526020018481526020018381526020018281526020013373ffffffffffffffffffffffffffffffffffffffff16815250600460006002548152602001908152602001600020600082015181600001908051906020019061104392919061191b565b50602082015181600101908051906020019061106092919061191b565b50604082015181600201908051906020019061107d92919061191b565b50606082015181600301908051906020019061109a92919061191b565b5060808201518160040190805190602001906110b792919061191b565b5060a08201518160050190805190602001906110d492919061191b565b5060c08201518160060160006101000a81548173ffffffffffffffffffffffffffffffffffffffff021916908373ffffffffffffffffffffffffffffffffffffffff1602179055509050507f717a9bc50265b99122b04f1d027ebaf9703dd9d78056a1ff679f2d4545429bab86868686868633604051808060200180602001806020018060200180602001806020018873ffffffffffffffffffffffffffffffffffffffff1673ffffffffffffffffffffffffffffffffffffffff16815260200187810387528e818151815260200191508051906020019080838360005b838110156111cd5780820151818401526020810190506111b2565b50505050905090810190601f1680156111fa5780820380516001836020036101000a031916815260200191505b5087810386528d818151815260200191508051906020019080838360005b83811015611233578082015181840152602081019050611218565b50505050905090810190601f1680156112605780820380516001836020036101000a031916815260200191505b5087810385528c818151815260200191508051906020019080838360005b8381101561129957808201518184015260208101905061127e565b50505050905090810190601f1680156112c65780820380516001836020036101000a031916815260200191505b5087810384528b818151815260200191508051906020019080838360005b838110156112ff5780820151818401526020810190506112e4565b50505050905090810190601f16801561132c5780820380516001836020036101000a031916815260200191505b5087810383528a818151815260200191508051906020019080838360005b8381101561136557808201518184015260208101905061134a565b50505050905090810190601f1680156113925780820380516001836020036101000a031916815260200191505b50878103825289818151815260200191508051906020019080838360005b838110156113cb5780820151818401526020810190506113b0565b50505050905090810190601f1680156113f85780820380516001836020036101000a031916815260200191505b509d505050505050505050505050505060405180910390a1505050505050565b60008111801561142a57506001548111155b151561143557600080fd5b61143d61199b565b600360008381526020019081526020016000206080604051908101604052908160008201548152602001600182018054600181600116156101000203166002900480601f0160208091040260200160405190810160405280929190818152602001828054600181600116156101000203166002900480156114ff5780601f106114d4576101008083540402835291602001916114ff565b820191906000526020600020905b8154815290600101906020018083116114e257829003601f168201915b50505050508152602001600282015481526020016003820160009054906101000a900473ffffffffffffffffffffffffffffffffffffffff1673ffffffffffffffffffffffffffffffffffffffff1673ffffffffffffffffffffffffffffffffffffffff168152505090506000816060015190508073ffffffffffffffffffffffffffffffffffffffff166108fc349081150290604051600060405180830381858888f193505050501580156115b9573d6000803e3d6000fd5b5034826040015101826040018181525050816003600085815260200190815260200160002060008201518160000155602082015181600101908051906020019061160492919061191b565b506040820151816002015560608201518160030160006101000a81548173ffffffffffffffffffffffffffffffffffffffff021916908373ffffffffffffffffffffffffffffffffffffffff1602179055509050507f20988fe475351e75813672abada1dddb7ac67cbbeb81e61e1160b8329d8cdf1c600154836020015184604001518460405180858152602001806020018481526020018373ffffffffffffffffffffffffffffffffffffffff1673ffffffffffffffffffffffffffffffffffffffff168152602001828103825285818151815260200191508051906020019080838360005b838110156117065780820151818401526020810190506116eb565b50505050905090810190601f1680156117335780820380516001836020036101000a031916815260200191505b509550505050505060405180910390a1505050565b6000815111151561175857600080fd5b6001600081548092919060010191905055506080604051908101604052806001548152602001828152602001600081526020013373ffffffffffffffffffffffffffffffffffffffff168152506003600060015481526020019081526020016000206000820151816000015560208201518160010190805190602001906117e092919061191b565b506040820151816002015560608201518160030160006101000a81548173ffffffffffffffffffffffffffffffffffffffff021916908373ffffffffffffffffffffffffffffffffffffffff1602179055509050507fc66336337a24e513f909b3b25119854dba8385d51307dbc7d31d1b2805e19c7e6001548260003360405180858152602001806020018481526020018373ffffffffffffffffffffffffffffffffffffffff1673ffffffffffffffffffffffffffffffffffffffff168152602001828103825285818151815260200191508051906020019080838360005b838110156118db5780820151818401526020810190506118c0565b50505050905090810190601f1680156119085780820380516001836020036101000a031916815260200191505b509550505050505060405180910390a150565b828054600181600116156101000203166002900490600052602060002090601f016020900481019282601f1061195c57805160ff191683800117855561198a565b8280016001018555821561198a579182015b8281111561198957825182559160200191906001019061196e565b5b50905061199791906119da565b5090565b608060405190810160405280600081526020016060815260200160008152602001600073ffffffffffffffffffffffffffffffffffffffff1681525090565b6119fc91905b808211156119f85760008160009055506001016119e0565b5090565b9056fea165627a7a72305820c4f6691951ab6493c363da2e15a7721d4cdb072a99d8b97185f7469f75799b800029",
  "source": "pragma solidity ^0.5.0;\r\n\r\ncontract SocialNetwork {\r\n    string public name;\r\n    uint public postCount = 0;\r\n    uint public demographicCount = 0;\r\n\r\n    mapping(uint => Post) public posts;\r\n    mapping(uint => Demographic) public demographics;\r\n\r\n    struct Post {\r\n        uint id;\r\n        string content;\r\n        uint tipAmount;\r\n        address payable author;\r\n    }\r\n\r\n    event PostCreated(\r\n        uint id,\r\n        string content,\r\n        uint tipAmount,\r\n        address payable author\r\n    );\r\n\r\n    event PostTipped(\r\n        uint id,\r\n        string content,\r\n        uint tipAmount,\r\n        address payable author\r\n    );\r\n\r\n    struct Demographic {\r\n        string firstName;\r\n        string lastName;\r\n        string dateOfBirth;\r\n        string height;\r\n        string weight;\r\n        string bloodType;\r\n        address payable author;\r\n    }\r\n\r\n    event DemographicCreated(\r\n        string firstName,\r\n        string lastName,\r\n        string dateOfBirth,\r\n        string height,\r\n        string weight,\r\n        string bloodType,\r\n        address payable author\r\n    );\r\n\r\n    constructor() public {\r\n        name = \"Dapp University Social Network\";\r\n    }\r\n\r\n    function createPost(string memory _content) public {\r\n        // Require valid content\r\n        require(bytes(_content).length > 0);\r\n        // Increment the post count\r\n        postCount ++;\r\n        // Create the post\r\n        posts[postCount] = Post(postCount, _content, 0, msg.sender);\r\n        // Trigger Event\r\n        emit PostCreated(postCount, _content, 0, msg.sender);\r\n    }\r\n\r\n    function addDemographic(\r\n        string memory _firstName,\r\n        string memory _lastName,\r\n        string memory _dateOfBirth,\r\n        string memory _height,\r\n        string memory _weight,\r\n        string memory _bloodType\r\n    \r\n    \r\n    ) public {\r\n        // Require valid content\r\n        require(bytes(_firstName).length > 0);\r\n        // Increment the post count\r\n        demographicCount ++;\r\n        // Create the post\r\n        demographics[demographicCount] = Demographic(_firstName, _lastName, _dateOfBirth, _height, _weight, _bloodType, msg.sender);\r\n        emit DemographicCreated(_firstName, _lastName, _dateOfBirth, _height, _weight, _bloodType, msg.sender);\r\n\r\n    }\r\n\r\n    function tipPost(uint _id) public payable {\r\n        // Make sure the id is valid\r\n        require(_id > 0 && _id <= postCount);\r\n        // Fetch the post\r\n        Post memory _post = posts[_id];\r\n        // Fetch the author\r\n        address payable _author = _post.author;\r\n        // Pay the author\r\n        address(_author).transfer(msg.value);\r\n        // Increment the tip amount\r\n        // 1 Ether = 1000000000000000000 Wei\r\n        _post.tipAmount = _post.tipAmount + msg.value;\r\n        // Update the post\r\n        posts[_id] = _post;\r\n        // Trigger an event\r\n        emit PostTipped(postCount, _post.content, _post.tipAmount, _author);\r\n    }\r\n}",
  "sourcePath": "C:/Users/micha/Documents/final-blockchain/starter_kit/src/contracts/SocialNetwork.sol",
  "compiler": {
    "name": "solc",
    "version": "0.5.0+commit.1d4f565a.Emscripten.clang"
  },
  "schemaVersion": "3.0.2",
  "updatedAt": "2023-11-03T00:54:39.240Z",
  "devdoc": {
    "methods": {}
  },
  "userdoc": {
    "methods": {}
  }
}